:0400000017EF3FF0C7
:087E18009EAAFED7AE50120035
:107E210030443030373735333539373000210EF6AD
:107E31006E7E0EF76E000EF86E00EE25F010EE0D60
:107E4100F00900F5CFEEFFE550E150FAE100EE1840
:107E5100F00D0EEE6AE806FDE10001BBEF3FF00414
:107E6100D0014A022A034A042A01C0D9FF02C0DA1A
:107E7100FFDF50056E03C0D9FF04C0DAFFDF5000F9
:107E8100080524066E0650D8A407D001C0D9FF0208
:107E9100C0DAFFDF50D8A4E4D70650016E026A01B0
:107EA100BE02061200000EAC6E000EAB6EAC98B8AE
:107EB10086AB8EAB88AC84AC8A000E016E090E02D3
:107EC1006E3D0E036E000E046E0EC005F00FC0066F
:107ED100F010C007F011C008F07AEC3FF0FF0E017E
:107EE10024126EFF0E0220136E1350B06E12C0AF3B
:107EF100FF1200000E096E000E0A6E000E0B6E00DE
:107F01000E0C6E0550061007100810D8B42AD001C7
:107F11000E0D6E06D0D89005360636073608360D9A
:107F21002A08AEF8D7D89009360A360B360C360532
:107F310050015C065002580750035808500458D8A5
:107F4100A009D00550015E0650025A0750035A0895
:107F510050045A0980D89008320732063205320D92
:107F61002EE1D709C001F00AC002F00BC003F00CEA
:107F7100C004F01200000E0F01396F000E936E0065
:107F81000E0F013A6F800E946E8098800E0E6E2552
:107F91000E0F6E000E106E000E116E53EC3FF000CE
:107FA1000E176E000E166E17BE06D0175010E10C9C
:107FB1000E165CD8B00CD0180E1624D96E000E1710
:107FC10020DA6E0CEC3FF0DF6E164A172AECD70070
:107FD1000E246E180E016E000E026E250E036E0049
:107FE1000E046E30EC3FF001C014F002C015F01425
:0F7FF100501510D8A402D08088D2D78098D0D74E
:020000040020DA
:08000000FFFFFFFFFFFFFFFF00
:020000040030CA
:0E000000FF031F3CFFB580FF0FC00FE00F4055
:00000001FF
